:020000021000EC
:10F000000C94ACF80C94CDF80C94CDF80C94CDF88D
:10F010000C94CDF80C94CDF80C94CDF80C94CDF85C
:10F020000C94CDF80C94CDF80C94CDF80C94CDF84C
:10F030000C94CDF80C94CDF80C94CDF80C94CDF83C
:10F040000C94CDF80C94CDF80C94CDF80C94CDF82C
:10F050000C94CDF80C94CDF80C94CDF80C94CDF81C
:10F060000C94CDF80C94CDF80C94CDF80C94CDF80C
:10F070000C94CDF80C94CDF80C94CDF80C94CDF8FC
:10F080000C94CDF80C94CDF80C94CDF80C94CDF8EC
:10F090000C94CDF80C94CDF80C94CDF80C94CDF8DC
:10F0A0000C94CDF80C94CDF80C94CDF80C94CDF8CC
:10F0B0000C94CDF80C94CDF80C94CDF80C94CDF8BC
:10F0C0000C94CDF80C94CDF80C94CDF80C94CDF8AC
:10F0D0000C94CDF80C94CDF80C94CDF80C94CDF89C
:10F0E0000C94CDF80C94CDF80C94CDF80C94CDF88C
:10F0F0000C94CDF80C94CDF80C94CDF80C94CDF87C
:10F100000C94CDF80C94CDF80C94CDF80C94CDF86B
:10F110000C94CDF80C94CDF80C94CDF80C94CDF85B
:10F120000C94CDF80C94CDF80C94CDF80C94CDF84B
:10F130000C94CDF801020000000000000000000067
:10F1400000000000000000000000000000000000BF
:10F15000010101010101010111241FBECFEFD1E81E
:10F16000DEBFCDBF00E00CBF12E0A0E0B2E0EEEBEE
:10F17000F8EF01E00BBF02C007900D92AE32B1076D
:10F18000D9F723E0AEE2B2E001C01D92AB33B20783
:10F19000E1F70E94C9F90C945DFC0C9400F8909181
:10F1A0003102913039F49091C00095FFFCCF8093EB
:10F1B000C6000895923031F49091C80095FFFCCFBD
:10F1C0008093CE000895CF93282F22952F702A3058
:10F1D00010F0295A01C0205D982F9F709A3010F0CE
:10F1E000C7E501C0C0E3C90F822F0E94CFF88C2F62
:10F1F000CF910C94CFF8CF92DF92EF92FF92809153
:10F2000031028130E9F4C12CD12C76018091C0000B
:10F2100087FD13C08FEFC81AD80AE80AF80A81E4FC
:10F22000C81682E4D8068FE0E806F10478F3E0918E
:10F230002E02F0912F021995E9CF8091C60020C0CF
:10F240008230E9F4C12CD12C76018091C80087FD71
:10F2500013C08FEFC81AD80AE80AF80A81E4C81662
:10F2600082E4D8068FE0E806F10478F3E0912E02FC
:10F27000F0912F021995E9CF8091CE0001C080E076
:10F28000FF90EF90DF90CF900895CF930E94FBF80E
:10F29000C82F0E94CFF8C13610F089EA03C0C033EE
:10F2A00018F080ED8C0F01C08C2FCF910895CF9373
:10F2B0000E9445F9C82F0E9445F990E1C99F800D31
:10F2C0001124CF91089590913102815090F09130A6
:10F2D00039F42091C00027FFFCCF2091C600F5CF64
:10F2E000923099F72091C80027FFFCCF2091CE00E3
:10F2F000ECCF0895CF93C82F0E94FBF8803251F4D1
:10F3000084E10E94CFF88C2F0E94CFF880E1CF914A
:10F310000C94CFF8809130028F5F8093300285305B
:10F3200031F4E0912E02F0912F02CF911994CF91F8
:10F3300008950E94FBF8803231F484E10E94CFF8F6
:10F3400080E10C94CFF8809130028F5F809330027F
:10F35000853029F4E0912E02F0912F02199408953E
:10F360008823B1F0759A2FEF31EE94E021503040B0
:10F370009040E1F700C0000075982FEF31EE94E067
:10F38000215030409040E1F700C000008150E8CFAC
:10F390000895000081E080933102E0E0F0E0E49124
:10F3A00080E18093C4001092C5001092C00086E0F6
:10F3B0008093C20088E18093C1006898709A6D9A2A
:10F3C000809131028B5F0E94B0F9FF24F3940E9478
:10F3D000FBF8803309F442C08133E1F40E94FBF86A
:10F3E000803209F039C284E10E94CFF881E40E94A2
:10F3F000CFF886E50E94CFF882E50E94CFF880E240
:10F400000E94CFF889E40E94CFF883E50E94CFF8EC
:10F4100080E525C1803439F40E94FBF88638F0F08D
:10F420000E94FBF81BC08134A1F40E94FBF88038D5
:10F4300011F482E003C0813821F481E00E947AF95E
:10F44000C6CF823811F480E1F9CF8839E1F583E045
:10F45000F5CF823431F484E10E9463F90E9499F976
:10F46000B6CF853411F485E0F7CF982F9D7F903586
:10F47000A9F3813599F3853569F40E94FBF88093EF
:10F4800032020E94FBF8809333020E94FBF88093C3
:10F490003402E4CF8635C9F40E94FBF8803381F44E
:10F4A0000E94FBF80E94FBF8182F0E94FBF8111134
:10F4B00002C08EE1C3CF113009F0BBCF88EABECFC6
:10F4C00083E00E9463F980E0B9CF843609F0CDC0B3
:10F4D0000E94FBF8809336030E94FBF8809335036B
:10F4E00080913A038E7F80933A030E94FBF8853423
:10F4F00029F480913A03816080933A0305E312E096
:10F500008091350390913603980125533240281796
:10F51000390730F40E94FBF8F80181938F01F0CF96
:10F520000E94FBF8803209F097C180913A0380FF76
:10F530002AC08091320290913302880F991F9093D4
:10F5400033028093320205E312E0809135039091FB
:10F5500036039801255332402817390708F07EC03A
:10F56000F80161918F0180913202909133020E94E3
:10F570004FFC8091320290913302019690933302B6
:10F5800080933202E2CF80913402880F880B8F2162
:10F59000809339038BBF8091320290913302880FA0
:10F5A000991F90933302809332028091350380FF3C
:10F5B00009C08091350390913603019690933603EC
:10F5C00080933503F894F999FECF1127E091320228
:10F5D000F0913302C5E3D2E0809135039091360378
:10F5E000103091F40091570001700130D9F303E01D
:10F5F00000935700E8950091570001700130D9F34E
:10F6000001E100935700E895099019900091570087
:10F6100001700130D9F301E000935700E89513958C
:10F62000103898F011270091570001700130D9F37C
:10F6300005E000935700E8950091570001700130F4
:10F64000D9F301E100935700E8953296029709F04B
:10F65000C7CF103011F00296E5CF112484E10E944B
:10F66000CFF880E10E94CFF8B2CE843709F05EC0B7
:10F670000E94FBF8809336030E94FBF880933503C9
:10F68000809132029091330220913A038F3FFFEF35
:10F690009F0711F4226001C02D7F20933A03880F49
:10F6A000991F90933302809332020E94FBF890914D
:10F6B0003A03853411F4916001C09E7F90933A0320
:10F6C0000E94FBF8803209F082CE84E10E94CFF8DC
:10F6D00000E010E080913503909136030817190778
:10F6E00008F0BFCF20913A0380913202909133020B
:10F6F00020FF03C00E9447FC0BC021FD03C0FC019A
:10F70000849106C0A0E0B0E01196ABBFFC018791E8
:10F710000E94CFF88091320290913302019690932B
:10F720003302809332020F5F1F4FD4CF853781F4AD
:10F730000E94FBF8803209F08FC084E10E94CFF86C
:10F740008EE10E94CFF888EA0E94CFF882E087CF4E
:10F75000863709F4B8CE813209F07EC00E94FBF8EA
:10F76000813209F034CE0E94FBF8813209F02FCEAD
:10F770006D9A759810923803E0913803F0E0E050EC
:10F78000FE4F8081882371F00E94CFF8809138036A
:10F790008F5F80933803F0CF659B18C0759881E325
:10F7A0000E94CFF88AE00E94CFF88DE00E94CFF847
:10F7B0008AE30E94CFF880E20E94CFF80E94FBF813
:10F7C000182F0E94CFF8143721F4E6CF759A80E302
:10F7D000E7CF1237B9F40E94FBF80E94CFF80E94DD
:10F7E00057F9082F0E9457F9182F8DE30E94CFF880
:10F7F000E02FF0E0FE2FEE27E10FF11D80810E9447
:10F80000E3F8D0CF1737C1F40E94FBF80E94CFF87D
:10F810000E9457F9082F0E9457F9182F0E94FBF8F1
:10F820000E94CFF80E9457F9E02FF0E0FE2FEE275C
:10F83000E10FF11D8083B6CF153729F40E94FBF844
:10F840000E94CFF8FBCF1A3609F0ACCFE0912E0220
:10F85000F0912F021995A6CF809130028F5F80938F
:10F860003002853009F0B3CDE0912E02F0912F02E5
:10F870001995ADCD282F80E591EFA1E0BB27820F30
:10F88000911DA11DB11DABBFFC0187910895F99990
:10F89000FECF92BD81BDF89A992780B50895262F95
:10F8A000F999FECF1FBA92BD81BD20BD0FB6F89465
:0EF8B000FA9AF99A0FBE01960895F894FFCFC8
:10F8BE0041546D656761424F4F54202F2067756824
:10F8CE005246202D202843292067756820476D62F7
:0EF8DE0048202D203138303030360A0D000021
:04FF80000C943AFCA7
:040000031000F000F9
:00000001FF
